{
  "contractName": "Tracker",
  "abi": [
    {
      "inputs": [
        {
          "internalType": "address",
          "name": "",
          "type": "address"
        }
      ],
      "name": "tokens",
      "outputs": [
        {
          "internalType": "address",
          "name": "owner",
          "type": "address"
        },
        {
          "internalType": "uint256",
          "name": "balance",
          "type": "uint256"
        },
        {
          "internalType": "string",
          "name": "certificate",
          "type": "string"
        },
        {
          "internalType": "string",
          "name": "name",
          "type": "string"
        },
        {
          "internalType": "uint32",
          "name": "price",
          "type": "uint32"
        },
        {
          "internalType": "uint256",
          "name": "timestamp",
          "type": "uint256"
        },
        {
          "internalType": "bool",
          "name": "isSold",
          "type": "bool"
        }
      ],
      "stateMutability": "view",
      "type": "function"
    },
    {
      "inputs": [
        {
          "internalType": "address",
          "name": "_owner",
          "type": "address"
        },
        {
          "internalType": "string",
          "name": "_name",
          "type": "string"
        },
        {
          "internalType": "string",
          "name": "_certificate",
          "type": "string"
        },
        {
          "internalType": "uint32",
          "name": "_price",
          "type": "uint32"
        }
      ],
      "name": "addToken",
      "outputs": [],
      "stateMutability": "nonpayable",
      "type": "function"
    },
    {
      "inputs": [
        {
          "internalType": "address",
          "name": "_owner",
          "type": "address"
        },
        {
          "internalType": "string",
          "name": "_name",
          "type": "string"
        },
        {
          "internalType": "string",
          "name": "_certificate",
          "type": "string"
        },
        {
          "internalType": "uint32",
          "name": "_price",
          "type": "uint32"
        }
      ],
      "name": "updateToken",
      "outputs": [],
      "stateMutability": "nonpayable",
      "type": "function"
    },
    {
      "inputs": [
        {
          "internalType": "address",
          "name": "_owner",
          "type": "address"
        },
        {
          "internalType": "address",
          "name": "_newOwner",
          "type": "address"
        }
      ],
      "name": "transferToken",
      "outputs": [],
      "stateMutability": "nonpayable",
      "type": "function"
    },
    {
      "inputs": [
        {
          "internalType": "address",
          "name": "_owner",
          "type": "address"
        },
        {
          "internalType": "uint256",
          "name": "_amount",
          "type": "uint256"
        }
      ],
      "name": "sellToken",
      "outputs": [],
      "stateMutability": "nonpayable",
      "type": "function"
    },
    {
      "inputs": [
        {
          "internalType": "address",
          "name": "_owner",
          "type": "address"
        }
      ],
      "name": "isSold",
      "outputs": [
        {
          "internalType": "bool",
          "name": "",
          "type": "bool"
        }
      ],
      "stateMutability": "view",
      "type": "function"
    },
    {
      "inputs": [
        {
          "internalType": "address",
          "name": "_owner",
          "type": "address"
        }
      ],
      "name": "isOwner",
      "outputs": [
        {
          "internalType": "bool",
          "name": "",
          "type": "bool"
        }
      ],
      "stateMutability": "view",
      "type": "function"
    },
    {
      "inputs": [
        {
          "internalType": "address",
          "name": "_owner",
          "type": "address"
        },
        {
          "internalType": "uint256",
          "name": "_amount",
          "type": "uint256"
        }
      ],
      "name": "pay",
      "outputs": [],
      "stateMutability": "nonpayable",
      "type": "function"
    },
    {
      "inputs": [
        {
          "internalType": "address",
          "name": "_newowner",
          "type": "address"
        },
        {
          "internalType": "uint256",
          "name": "_amount",
          "type": "uint256"
        }
      ],
      "name": "copyright",
      "outputs": [],
      "stateMutability": "nonpayable",
      "type": "function"
    },
    {
      "inputs": [
        {
          "internalType": "address",
          "name": "_owner",
          "type": "address"
        },
        {
          "internalType": "string",
          "name": "_certificate",
          "type": "string"
        }
      ],
      "name": "verifyCertificate",
      "outputs": [
        {
          "internalType": "bool",
          "name": "",
          "type": "bool"
        }
      ],
      "stateMutability": "view",
      "type": "function"
    }
  ],
  "bytecode": "0x608060405234801561001057600080fd5b5061249b806100206000396000f3fe608060405234801561001057600080fd5b506004361061009e5760003560e01c806375d0a4831161006657806375d0a4831461016b57806391fd4ed914610187578063c4076876146101a3578063e4860339146101bf578063f464e7db146101f55761009e565b80632f54bf6e146100a357806332cc82b3146100d357806347ec43481461010357806348ae238f1461011f5780634f4ad4911461013b575b600080fd5b6100bd60048036038101906100b89190611e31565b610211565b6040516100ca9190611e79565b60405180910390f35b6100ed60048036038101906100e89190611fda565b610469565b6040516100fa9190611e79565b60405180910390f35b61011d60048036038101906101189190612072565b6106e2565b005b61013960048036038101906101349190612111565b610a57565b005b61015560048036038101906101509190611e31565b610dce565b6040516101629190611e79565b60405180910390f35b61018560048036038101906101809190612072565b610ff8565b005b6101a1600480360381019061019c9190612187565b611174565b005b6101bd60048036038101906101b89190612187565b6114cc565b005b6101d960048036038101906101d49190611e31565b611824565b6040516101ec979695949392919061227c565b60405180910390f35b61020f600480360381019061020a9190612187565b6119b3565b005b6000806000808473ffffffffffffffffffffffffffffffffffffffff1673ffffffffffffffffffffffffffffffffffffffff1681526020019081526020016000206040518060e00160405290816000820160009054906101000a900473ffffffffffffffffffffffffffffffffffffffff1673ffffffffffffffffffffffffffffffffffffffff1673ffffffffffffffffffffffffffffffffffffffff168152602001600182015481526020016002820180546102cd90612328565b80601f01602080910402602001604051908101604052809291908181526020018280546102f990612328565b80156103465780601f1061031b57610100808354040283529160200191610346565b820191906000526020600020905b81548152906001019060200180831161032957829003601f168201915b5050505050815260200160038201805461035f90612328565b80601f016020809104026020016040519081016040528092919081815260200182805461038b90612328565b80156103d85780601f106103ad576101008083540402835291602001916103d8565b820191906000526020600020905b8154815290600101906020018083116103bb57829003601f168201915b505050505081526020016004820160009054906101000a900463ffffffff1663ffffffff1663ffffffff168152602001600582015481526020016006820160009054906101000a900460ff16151515158152505090503373ffffffffffffffffffffffffffffffffffffffff16816000015173ffffffffffffffffffffffffffffffffffffffff1614915050919050565b6000806000808573ffffffffffffffffffffffffffffffffffffffff1673ffffffffffffffffffffffffffffffffffffffff1681526020019081526020016000206040518060e00160405290816000820160009054906101000a900473ffffffffffffffffffffffffffffffffffffffff1673ffffffffffffffffffffffffffffffffffffffff1673ffffffffffffffffffffffffffffffffffffffff1681526020016001820154815260200160028201805461052590612328565b80601f016020809104026020016040519081016040528092919081815260200182805461055190612328565b801561059e5780601f106105735761010080835404028352916020019161059e565b820191906000526020600020905b81548152906001019060200180831161058157829003601f168201915b505050505081526020016003820180546105b790612328565b80601f01602080910402602001604051908101604052809291908181526020018280546105e390612328565b80156106305780601f1061060557610100808354040283529160200191610630565b820191906000526020600020905b81548152906001019060200180831161061357829003601f168201915b505050505081526020016004820160009054906101000a900463ffffffff1663ffffffff1663ffffffff168152602001600582015481526020016006820160009054906101000a900460ff1615151515815250509050826040516020016106979190612395565b6040516020818303038152906040528051906020012081604001516040516020016106c29190612395565b604051602081830303815290604052805190602001201491505092915050565b60008060008673ffffffffffffffffffffffffffffffffffffffff1673ffffffffffffffffffffffffffffffffffffffff1681526020019081526020016000206040518060e00160405290816000820160009054906101000a900473ffffffffffffffffffffffffffffffffffffffff1673ffffffffffffffffffffffffffffffffffffffff1673ffffffffffffffffffffffffffffffffffffffff1681526020016001820154815260200160028201805461079d90612328565b80601f01602080910402602001604051908101604052809291908181526020018280546107c990612328565b80156108165780601f106107eb57610100808354040283529160200191610816565b820191906000526020600020905b8154815290600101906020018083116107f957829003601f168201915b5050505050815260200160038201805461082f90612328565b80601f016020809104026020016040519081016040528092919081815260200182805461085b90612328565b80156108a85780601f1061087d576101008083540402835291602001916108a8565b820191906000526020600020905b81548152906001019060200180831161088b57829003601f168201915b505050505081526020016004820160009054906101000a900463ffffffff1663ffffffff1663ffffffff168152602001600582015481526020016006820160009054906101000a900460ff161515151581525050905083816060018190525082816040018190525081816080019063ffffffff16908163ffffffff1681525050428160a0018181525050806000808773ffffffffffffffffffffffffffffffffffffffff1673ffffffffffffffffffffffffffffffffffffffff16815260200190815260200160002060008201518160000160006101000a81548173ffffffffffffffffffffffffffffffffffffffff021916908373ffffffffffffffffffffffffffffffffffffffff1602179055506020820151816001015560408201518160020190805190602001906109de929190611d1c565b5060608201518160030190805190602001906109fb929190611d1c565b5060808201518160040160006101000a81548163ffffffff021916908363ffffffff16021790555060a0820151816005015560c08201518160060160006101000a81548160ff0219169083151502179055509050505050505050565b60008060008473ffffffffffffffffffffffffffffffffffffffff1673ffffffffffffffffffffffffffffffffffffffff1681526020019081526020016000206040518060e00160405290816000820160009054906101000a900473ffffffffffffffffffffffffffffffffffffffff1673ffffffffffffffffffffffffffffffffffffffff1673ffffffffffffffffffffffffffffffffffffffff16815260200160018201548152602001600282018054610b1290612328565b80601f0160208091040260200160405190810160405280929190818152602001828054610b3e90612328565b8015610b8b5780601f10610b6057610100808354040283529160200191610b8b565b820191906000526020600020905b815481529060010190602001808311610b6e57829003601f168201915b50505050508152602001600382018054610ba490612328565b80601f0160208091040260200160405190810160405280929190818152602001828054610bd090612328565b8015610c1d5780601f10610bf257610100808354040283529160200191610c1d565b820191906000526020600020905b815481529060010190602001808311610c0057829003601f168201915b505050505081526020016004820160009054906101000a900463ffffffff1663ffffffff1663ffffffff168152602001600582015481526020016006820160009054906101000a900460ff161515151581525050905081816000019073ffffffffffffffffffffffffffffffffffffffff16908173ffffffffffffffffffffffffffffffffffffffff1681525050806000808573ffffffffffffffffffffffffffffffffffffffff1673ffffffffffffffffffffffffffffffffffffffff16815260200190815260200160002060008201518160000160006101000a81548173ffffffffffffffffffffffffffffffffffffffff021916908373ffffffffffffffffffffffffffffffffffffffff160217905550602082015181600101556040820151816002019080519060200190610d57929190611d1c565b506060820151816003019080519060200190610d74929190611d1c565b5060808201518160040160006101000a81548163ffffffff021916908363ffffffff16021790555060a0820151816005015560c08201518160060160006101000a81548160ff021916908315150217905550905050505050565b6000806000808473ffffffffffffffffffffffffffffffffffffffff1673ffffffffffffffffffffffffffffffffffffffff1681526020019081526020016000206040518060e00160405290816000820160009054906101000a900473ffffffffffffffffffffffffffffffffffffffff1673ffffffffffffffffffffffffffffffffffffffff1673ffffffffffffffffffffffffffffffffffffffff16815260200160018201548152602001600282018054610e8a90612328565b80601f0160208091040260200160405190810160405280929190818152602001828054610eb690612328565b8015610f035780601f10610ed857610100808354040283529160200191610f03565b820191906000526020600020905b815481529060010190602001808311610ee657829003601f168201915b50505050508152602001600382018054610f1c90612328565b80601f0160208091040260200160405190810160405280929190818152602001828054610f4890612328565b8015610f955780601f10610f6a57610100808354040283529160200191610f95565b820191906000526020600020905b815481529060010190602001808311610f7857829003601f168201915b505050505081526020016004820160009054906101000a900463ffffffff1663ffffffff1663ffffffff168152602001600582015481526020016006820160009054906101000a900460ff16151515158152505090508060c00151915050919050565b60006040518060e001604052808673ffffffffffffffffffffffffffffffffffffffff168152602001600081526020018481526020018581526020018363ffffffff168152602001428152602001600015158152509050806000808773ffffffffffffffffffffffffffffffffffffffff1673ffffffffffffffffffffffffffffffffffffffff16815260200190815260200160002060008201518160000160006101000a81548173ffffffffffffffffffffffffffffffffffffffff021916908373ffffffffffffffffffffffffffffffffffffffff1602179055506020820151816001015560408201518160020190805190602001906110fb929190611d1c565b506060820151816003019080519060200190611118929190611d1c565b5060808201518160040160006101000a81548163ffffffff021916908363ffffffff16021790555060a0820151816005015560c08201518160060160006101000a81548160ff0219169083151502179055509050505050505050565b60008060008473ffffffffffffffffffffffffffffffffffffffff1673ffffffffffffffffffffffffffffffffffffffff1681526020019081526020016000206040518060e00160405290816000820160009054906101000a900473ffffffffffffffffffffffffffffffffffffffff1673ffffffffffffffffffffffffffffffffffffffff1673ffffffffffffffffffffffffffffffffffffffff1681526020016001820154815260200160028201805461122f90612328565b80601f016020809104026020016040519081016040528092919081815260200182805461125b90612328565b80156112a85780601f1061127d576101008083540402835291602001916112a8565b820191906000526020600020905b81548152906001019060200180831161128b57829003601f168201915b505050505081526020016003820180546112c190612328565b80601f01602080910402602001604051908101604052809291908181526020018280546112ed90612328565b801561133a5780601f1061130f5761010080835404028352916020019161133a565b820191906000526020600020905b81548152906001019060200180831161131d57829003601f168201915b505050505081526020016004820160009054906101000a900463ffffffff1663ffffffff1663ffffffff168152602001600582015481526020016006820160009054906101000a900460ff161515151581525050905081816020018181516113a291906123db565b91508181525050806000808573ffffffffffffffffffffffffffffffffffffffff1673ffffffffffffffffffffffffffffffffffffffff16815260200190815260200160002060008201518160000160006101000a81548173ffffffffffffffffffffffffffffffffffffffff021916908373ffffffffffffffffffffffffffffffffffffffff160217905550602082015181600101556040820151816002019080519060200190611455929190611d1c565b506060820151816003019080519060200190611472929190611d1c565b5060808201518160040160006101000a81548163ffffffff021916908363ffffffff16021790555060a0820151816005015560c08201518160060160006101000a81548160ff021916908315150217905550905050505050565b60008060008473ffffffffffffffffffffffffffffffffffffffff1673ffffffffffffffffffffffffffffffffffffffff1681526020019081526020016000206040518060e00160405290816000820160009054906101000a900473ffffffffffffffffffffffffffffffffffffffff1673ffffffffffffffffffffffffffffffffffffffff1673ffffffffffffffffffffffffffffffffffffffff1681526020016001820154815260200160028201805461158790612328565b80601f01602080910402602001604051908101604052809291908181526020018280546115b390612328565b80156116005780601f106115d557610100808354040283529160200191611600565b820191906000526020600020905b8154815290600101906020018083116115e357829003601f168201915b5050505050815260200160038201805461161990612328565b80601f016020809104026020016040519081016040528092919081815260200182805461164590612328565b80156116925780601f1061166757610100808354040283529160200191611692565b820191906000526020600020905b81548152906001019060200180831161167557829003601f168201915b505050505081526020016004820160009054906101000a900463ffffffff1663ffffffff1663ffffffff168152602001600582015481526020016006820160009054906101000a900460ff161515151581525050905081816020018181516116fa919061240f565b91508181525050806000808573ffffffffffffffffffffffffffffffffffffffff1673ffffffffffffffffffffffffffffffffffffffff16815260200190815260200160002060008201518160000160006101000a81548173ffffffffffffffffffffffffffffffffffffffff021916908373ffffffffffffffffffffffffffffffffffffffff1602179055506020820151816001015560408201518160020190805190602001906117ad929190611d1c565b5060608201518160030190805190602001906117ca929190611d1c565b5060808201518160040160006101000a81548163ffffffff021916908363ffffffff16021790555060a0820151816005015560c08201518160060160006101000a81548160ff021916908315150217905550905050505050565b60006020528060005260406000206000915090508060000160009054906101000a900473ffffffffffffffffffffffffffffffffffffffff169080600101549080600201805461187390612328565b80601f016020809104026020016040519081016040528092919081815260200182805461189f90612328565b80156118ec5780601f106118c1576101008083540402835291602001916118ec565b820191906000526020600020905b8154815290600101906020018083116118cf57829003601f168201915b50505050509080600301805461190190612328565b80601f016020809104026020016040519081016040528092919081815260200182805461192d90612328565b801561197a5780601f1061194f5761010080835404028352916020019161197a565b820191906000526020600020905b81548152906001019060200180831161195d57829003601f168201915b5050505050908060040160009054906101000a900463ffffffff16908060050154908060060160009054906101000a900460ff16905087565b60008060008473ffffffffffffffffffffffffffffffffffffffff1673ffffffffffffffffffffffffffffffffffffffff1681526020019081526020016000206040518060e00160405290816000820160009054906101000a900473ffffffffffffffffffffffffffffffffffffffff1673ffffffffffffffffffffffffffffffffffffffff1673ffffffffffffffffffffffffffffffffffffffff16815260200160018201548152602001600282018054611a6e90612328565b80601f0160208091040260200160405190810160405280929190818152602001828054611a9a90612328565b8015611ae75780601f10611abc57610100808354040283529160200191611ae7565b820191906000526020600020905b815481529060010190602001808311611aca57829003601f168201915b50505050508152602001600382018054611b0090612328565b80601f0160208091040260200160405190810160405280929190818152602001828054611b2c90612328565b8015611b795780601f10611b4e57610100808354040283529160200191611b79565b820191906000526020600020905b815481529060010190602001808311611b5c57829003601f168201915b505050505081526020016004820160009054906101000a900463ffffffff1663ffffffff1663ffffffff168152602001600582015481526020016006820160009054906101000a900460ff16151515158152505090508181602001818151611be191906123db565b9150818152505060018160c0019015159081151581525050806000808573ffffffffffffffffffffffffffffffffffffffff1673ffffffffffffffffffffffffffffffffffffffff16815260200190815260200160002060008201518160000160006101000a81548173ffffffffffffffffffffffffffffffffffffffff021916908373ffffffffffffffffffffffffffffffffffffffff160217905550602082015181600101556040820151816002019080519060200190611ca5929190611d1c565b506060820151816003019080519060200190611cc2929190611d1c565b5060808201518160040160006101000a81548163ffffffff021916908363ffffffff16021790555060a0820151816005015560c08201518160060160006101000a81548160ff021916908315150217905550905050505050565b828054611d2890612328565b90600052602060002090601f016020900481019282611d4a5760008555611d91565b82601f10611d6357805160ff1916838001178555611d91565b82800160010185558215611d91579182015b82811115611d90578251825591602001919060010190611d75565b5b509050611d9e9190611da2565b5090565b5b80821115611dbb576000816000905550600101611da3565b5090565b6000604051905090565b600080fd5b600080fd5b600073ffffffffffffffffffffffffffffffffffffffff82169050919050565b6000611dfe82611dd3565b9050919050565b611e0e81611df3565b8114611e1957600080fd5b50565b600081359050611e2b81611e05565b92915050565b600060208284031215611e4757611e46611dc9565b5b6000611e5584828501611e1c565b91505092915050565b60008115159050919050565b611e7381611e5e565b82525050565b6000602082019050611e8e6000830184611e6a565b92915050565b600080fd5b600080fd5b6000601f19601f8301169050919050565b7f4e487b7100000000000000000000000000000000000000000000000000000000600052604160045260246000fd5b611ee782611e9e565b810181811067ffffffffffffffff82111715611f0657611f05611eaf565b5b80604052505050565b6000611f19611dbf565b9050611f258282611ede565b919050565b600067ffffffffffffffff821115611f4557611f44611eaf565b5b611f4e82611e9e565b9050602081019050919050565b82818337600083830152505050565b6000611f7d611f7884611f2a565b611f0f565b905082815260208101848484011115611f9957611f98611e99565b5b611fa4848285611f5b565b509392505050565b600082601f830112611fc157611fc0611e94565b5b8135611fd1848260208601611f6a565b91505092915050565b60008060408385031215611ff157611ff0611dc9565b5b6000611fff85828601611e1c565b925050602083013567ffffffffffffffff8111156120205761201f611dce565b5b61202c85828601611fac565b9150509250929050565b600063ffffffff82169050919050565b61204f81612036565b811461205a57600080fd5b50565b60008135905061206c81612046565b92915050565b6000806000806080858703121561208c5761208b611dc9565b5b600061209a87828801611e1c565b945050602085013567ffffffffffffffff8111156120bb576120ba611dce565b5b6120c787828801611fac565b935050604085013567ffffffffffffffff8111156120e8576120e7611dce565b5b6120f487828801611fac565b92505060606121058782880161205d565b91505092959194509250565b6000806040838503121561212857612127611dc9565b5b600061213685828601611e1c565b925050602061214785828601611e1c565b9150509250929050565b6000819050919050565b61216481612151565b811461216f57600080fd5b50565b6000813590506121818161215b565b92915050565b6000806040838503121561219e5761219d611dc9565b5b60006121ac85828601611e1c565b92505060206121bd85828601612172565b9150509250929050565b6121d081611df3565b82525050565b6121df81612151565b82525050565b600081519050919050565b600082825260208201905092915050565b60005b8381101561221f578082015181840152602081019050612204565b8381111561222e576000848401525b50505050565b600061223f826121e5565b61224981856121f0565b9350612259818560208601612201565b61226281611e9e565b840191505092915050565b61227681612036565b82525050565b600060e082019050612291600083018a6121c7565b61229e60208301896121d6565b81810360408301526122b08188612234565b905081810360608301526122c48187612234565b90506122d3608083018661226d565b6122e060a08301856121d6565b6122ed60c0830184611e6a565b98975050505050505050565b7f4e487b7100000000000000000000000000000000000000000000000000000000600052602260045260246000fd5b6000600282049050600182168061234057607f821691505b602082108103612353576123526122f9565b5b50919050565b600081905092915050565b600061236f826121e5565b6123798185612359565b9350612389818560208601612201565b80840191505092915050565b60006123a18284612364565b915081905092915050565b7f4e487b7100000000000000000000000000000000000000000000000000000000600052601160045260246000fd5b60006123e682612151565b91506123f183612151565b925082821015612404576124036123ac565b5b828203905092915050565b600061241a82612151565b915061242583612151565b9250827fffffffffffffffffffffffffffffffffffffffffffffffffffffffffffffffff0382111561245a576124596123ac565b5b82820190509291505056fea26469706673582212209662c6b90285c40d7dd4d8da4d4f408e65bc0f995ab44aa7bf39c140cace894464736f6c634300080e0033",
  "immutableReferences": {},
  "source": "//SPDX-License-Identifier: MIT\r\npragma solidity ^0.8.14;\r\n\r\n/*\r\n * @title Tracker\r\n * @author  Raswanth\r\n */\r\n\r\n// @dev This contract is used to track the ownsership of the tokens\r\ncontract Tracker {\r\n    struct Token {\r\n        address owner;\r\n        uint256 balance;\r\n        string certificate;\r\n        string name;\r\n        uint32 price;\r\n        uint256 timestamp;\r\n        bool isSold;\r\n    }\r\n\r\n    mapping(address => Token) public tokens;\r\n\r\n    // @dev This function is used to add the token to the list of tokens\r\n    function addToken(\r\n        address _owner,\r\n        string memory _name,\r\n        string memory _certificate,\r\n        uint32 _price\r\n    ) public {\r\n        Token memory token = Token(\r\n            _owner,\r\n            0,\r\n            _certificate,\r\n            _name,\r\n            _price,\r\n            block.timestamp,\r\n            false\r\n        );\r\n        tokens[_owner] = token;\r\n    }\r\n\r\n    // @dev This function is used to update the token details\r\n    function updateToken(\r\n        address _owner,\r\n        string memory _name,\r\n        string memory _certificate,\r\n        uint32 _price\r\n    ) public {\r\n        Token memory token = tokens[_owner];\r\n        token.name = _name;\r\n        token.certificate = _certificate;\r\n        token.price = _price;\r\n        token.timestamp = block.timestamp;\r\n        tokens[_owner] = token;\r\n    }\r\n\r\n    // @dev This function is used to transfer the ownership of the token\r\n    function transferToken(address _owner, address _newOwner) public {\r\n        Token memory token = tokens[_owner];\r\n        token.owner = _newOwner;\r\n        tokens[_owner] = token;\r\n    }\r\n\r\n    // @dev This function is used to sell the token\r\n    function sellToken(address _owner, uint256 _amount) public {\r\n        Token memory token = tokens[_owner];\r\n        token.balance -= _amount;\r\n        token.isSold = true;\r\n        tokens[_owner] = token;\r\n    }\r\n\r\n    // @dev This function is used to check if the token is sold\r\n    function isSold(address _owner) public view returns (bool) {\r\n        Token memory token = tokens[_owner];\r\n        return token.isSold;\r\n    }\r\n\r\n    // @dev This function is used to check proof of ownership\r\n    function isOwner(address _owner) public view returns (bool) {\r\n        Token memory token = tokens[_owner];\r\n        return token.owner == msg.sender;\r\n    }\r\n\r\n    // @dev This function is used to provide micropayment for the token to orginal owner\r\n    function pay(address _owner, uint256 _amount) public {\r\n        Token memory token = tokens[_owner];\r\n        token.balance += _amount;\r\n        tokens[_owner] = token;\r\n    }\r\n\r\n    // @dev This function is to provide copyright for the token\r\n    function copyright(address _newowner, uint256 _amount) public {\r\n        Token memory token = tokens[_newowner];\r\n        token.balance -= _amount;\r\n        tokens[_newowner] = token;\r\n    }\r\n\r\n    // @dev This function is used to verify certificate of the token\r\n    function verifyCertificate(address _owner, string memory _certificate)\r\n        public\r\n        view\r\n        returns (bool)\r\n    {\r\n        Token memory token = tokens[_owner];\r\n        return\r\n            keccak256(abi.encodePacked(token.certificate)) ==\r\n            keccak256(abi.encodePacked(_certificate));\r\n    }\r\n}\r\n",
  "sourcePath": "D:\\AssetTracker\\contracts\\Tracker.sol",
  "compiler": {
    "name": "solc",
    "version": "0.8.14+commit.80d49f37.Emscripten.clang"
  },
  "schemaVersion": "3.4.7",
  "updatedAt": "2022-08-02T09:16:03.087Z",
  "devdoc": {
    "kind": "dev",
    "methods": {},
    "version": 1
  },
  "userdoc": {
    "kind": "user",
    "methods": {},
    "version": 1
  }
}